{
  "contractName": "SurveyContract",
  "abi": [
    {
      "inputs": [],
      "stateMutability": "nonpayable",
      "type": "constructor"
    },
    {
      "anonymous": false,
      "inputs": [
        {
          "indexed": false,
          "internalType": "uint256",
          "name": "surveyId",
          "type": "uint256"
        },
        {
          "indexed": false,
          "internalType": "uint256",
          "name": "questionId",
          "type": "uint256"
        }
      ],
      "name": "ResponseSubmitted",
      "type": "event"
    },
    {
      "anonymous": false,
      "inputs": [
        {
          "indexed": false,
          "internalType": "uint256",
          "name": "surveyId",
          "type": "uint256"
        },
        {
          "indexed": false,
          "internalType": "string",
          "name": "title",
          "type": "string"
        }
      ],
      "name": "SurveyCreated",
      "type": "event"
    },
    {
      "inputs": [],
      "name": "surveyCount",
      "outputs": [
        {
          "internalType": "uint256",
          "name": "",
          "type": "uint256"
        }
      ],
      "stateMutability": "view",
      "type": "function"
    },
    {
      "inputs": [
        {
          "internalType": "uint256",
          "name": "",
          "type": "uint256"
        }
      ],
      "name": "surveys",
      "outputs": [
        {
          "internalType": "string",
          "name": "title",
          "type": "string"
        }
      ],
      "stateMutability": "view",
      "type": "function"
    },
    {
      "inputs": [
        {
          "internalType": "string",
          "name": "_title",
          "type": "string"
        },
        {
          "internalType": "string[]",
          "name": "_questions",
          "type": "string[]"
        }
      ],
      "name": "createSurvey",
      "outputs": [],
      "stateMutability": "nonpayable",
      "type": "function"
    },
    {
      "inputs": [
        {
          "internalType": "uint256",
          "name": "_surveyId",
          "type": "uint256"
        },
        {
          "internalType": "uint256",
          "name": "_questionId",
          "type": "uint256"
        },
        {
          "internalType": "string",
          "name": "_response",
          "type": "string"
        }
      ],
      "name": "submitResponse",
      "outputs": [],
      "stateMutability": "nonpayable",
      "type": "function"
    },
    {
      "inputs": [
        {
          "internalType": "uint256",
          "name": "_surveyId",
          "type": "uint256"
        }
      ],
      "name": "getSurvey",
      "outputs": [
        {
          "internalType": "string",
          "name": "title",
          "type": "string"
        },
        {
          "internalType": "string[]",
          "name": "questions",
          "type": "string[]"
        }
      ],
      "stateMutability": "view",
      "type": "function"
    },
    {
      "inputs": [
        {
          "internalType": "uint256",
          "name": "_surveyId",
          "type": "uint256"
        },
        {
          "internalType": "uint256",
          "name": "_questionId",
          "type": "uint256"
        }
      ],
      "name": "getResponses",
      "outputs": [
        {
          "internalType": "string[]",
          "name": "",
          "type": "string[]"
        }
      ],
      "stateMutability": "view",
      "type": "function"
    }
  ],
  "bytecode": "0x608060405234801561000f575f80fd5b505f6001819055506111e8806100245f395ff3fe608060405234801561000f575f80fd5b5060043610610060575f3560e01c8063082c7dd414610064578063471a20e71461008057806386e68b90146100b057806389670e15146100e0578063e804f4c014610111578063fa8c8fb91461012f575b5f80fd5b61007e6004803603810190610079919061098b565b61014b565b005b61009a60048036038101906100959190610a34565b610235565b6040516100a79190610ba7565b60405180910390f35b6100ca60048036038101906100c59190610bc7565b6103c8565b6040516100d79190610c3a565b60405180910390f35b6100fa60048036038101906100f59190610bc7565b610467565b604051610108929190610c5a565b60405180910390f35b61011961062a565b6040516101269190610c9e565b60405180910390f35b61014960048036038101906101449190610cb7565b610630565b005b5f805f60015481526020019081526020015f20905082815f0190816101709190610f1d565b505f5b82518110156101dd578160010183828151811061019357610192610fec565b5b6020026020010151908060018154018082558091505060019003905f5260205f20015f9091909190915090816101c99190610f1d565b5080806101d590611046565b915050610173565b507f24115da18be4519a03e6c2896c5bcc35d0302adbe2e68f0b53a4b272c5a8bb166001548460405161021192919061108d565b60405180910390a160015f81548092919061022b90611046565b9190505550505050565b6060600154831061027b576040517f08c379a000000000000000000000000000000000000000000000000000000000815260040161027290611105565b60405180910390fd5b5f808481526020019081526020015f206001018054905082106102d3576040517f08c379a00000000000000000000000000000000000000000000000000000000081526004016102ca9061116d565b60405180910390fd5b5f808481526020019081526020015f206002015f8381526020019081526020015f20805480602002602001604051908101604052809291908181526020015f905b828210156103bc578382905f5260205f2001805461033190610d50565b80601f016020809104026020016040519081016040528092919081815260200182805461035d90610d50565b80156103a85780601f1061037f576101008083540402835291602001916103a8565b820191905f5260205f20905b81548152906001019060200180831161038b57829003601f168201915b505050505081526020019060010190610314565b50505050905092915050565b5f602052805f5260405f205f91509050805f0180546103e690610d50565b80601f016020809104026020016040519081016040528092919081815260200182805461041290610d50565b801561045d5780601f106104345761010080835404028352916020019161045d565b820191905f5260205f20905b81548152906001019060200180831161044057829003601f168201915b5050505050905081565b60608060015483106104ae576040517f08c379a00000000000000000000000000000000000000000000000000000000081526004016104a590611105565b60405180910390fd5b5f805f8581526020019081526020015f209050805f01816001018180546104d490610d50565b80601f016020809104026020016040519081016040528092919081815260200182805461050090610d50565b801561054b5780601f106105225761010080835404028352916020019161054b565b820191905f5260205f20905b81548152906001019060200180831161052e57829003601f168201915b5050505050915080805480602002602001604051908101604052809291908181526020015f905b8282101561061a578382905f5260205f2001805461058f90610d50565b80601f01602080910402602001604051908101604052809291908181526020018280546105bb90610d50565b80156106065780601f106105dd57610100808354040283529160200191610606565b820191905f5260205f20905b8154815290600101906020018083116105e957829003601f168201915b505050505081526020019060010190610572565b5050505090509250925050915091565b60015481565b6001548310610674576040517f08c379a000000000000000000000000000000000000000000000000000000000815260040161066b90611105565b60405180910390fd5b5f808481526020019081526020015f206001018054905082106106cc576040517f08c379a00000000000000000000000000000000000000000000000000000000081526004016106c39061116d565b60405180910390fd5b5f808481526020019081526020015f206002015f8381526020019081526020015f2081908060018154018082558091505060019003905f5260205f20015f90919091909150908161071d9190610f1d565b507f52627238f1dd81194801792bbcaa1d21a3dbadc5ab1d34c7241fd3ff7b61afd9838360405161074f92919061118b565b60405180910390a1505050565b5f604051905090565b5f80fd5b5f80fd5b5f80fd5b5f80fd5b5f601f19601f8301169050919050565b7f4e487b71000000000000000000000000000000000000000000000000000000005f52604160045260245ffd5b6107bb82610775565b810181811067ffffffffffffffff821117156107da576107d9610785565b5b80604052505050565b5f6107ec61075c565b90506107f882826107b2565b919050565b5f67ffffffffffffffff82111561081757610816610785565b5b61082082610775565b9050602081019050919050565b828183375f83830152505050565b5f61084d610848846107fd565b6107e3565b90508281526020810184848401111561086957610868610771565b5b61087484828561082d565b509392505050565b5f82601f8301126108905761088f61076d565b5b81356108a084826020860161083b565b91505092915050565b5f67ffffffffffffffff8211156108c3576108c2610785565b5b602082029050602081019050919050565b5f80fd5b5f6108ea6108e5846108a9565b6107e3565b9050808382526020820190506020840283018581111561090d5761090c6108d4565b5b835b8181101561095457803567ffffffffffffffff8111156109325761093161076d565b5b80860161093f898261087c565b8552602085019450505060208101905061090f565b5050509392505050565b5f82601f8301126109725761097161076d565b5b81356109828482602086016108d8565b91505092915050565b5f80604083850312156109a1576109a0610765565b5b5f83013567ffffffffffffffff8111156109be576109bd610769565b5b6109ca8582860161087c565b925050602083013567ffffffffffffffff8111156109eb576109ea610769565b5b6109f78582860161095e565b9150509250929050565b5f819050919050565b610a1381610a01565b8114610a1d575f80fd5b50565b5f81359050610a2e81610a0a565b92915050565b5f8060408385031215610a4a57610a49610765565b5b5f610a5785828601610a20565b9250506020610a6885828601610a20565b9150509250929050565b5f81519050919050565b5f82825260208201905092915050565b5f819050602082019050919050565b5f81519050919050565b5f82825260208201905092915050565b5f5b83811015610ad2578082015181840152602081019050610ab7565b5f8484015250505050565b5f610ae782610a9b565b610af18185610aa5565b9350610b01818560208601610ab5565b610b0a81610775565b840191505092915050565b5f610b208383610add565b905092915050565b5f602082019050919050565b5f610b3e82610a72565b610b488185610a7c565b935083602082028501610b5a85610a8c565b805f5b85811015610b955784840389528151610b768582610b15565b9450610b8183610b28565b925060208a01995050600181019050610b5d565b50829750879550505050505092915050565b5f6020820190508181035f830152610bbf8184610b34565b905092915050565b5f60208284031215610bdc57610bdb610765565b5b5f610be984828501610a20565b91505092915050565b5f82825260208201905092915050565b5f610c0c82610a9b565b610c168185610bf2565b9350610c26818560208601610ab5565b610c2f81610775565b840191505092915050565b5f6020820190508181035f830152610c528184610c02565b905092915050565b5f6040820190508181035f830152610c728185610c02565b90508181036020830152610c868184610b34565b90509392505050565b610c9881610a01565b82525050565b5f602082019050610cb15f830184610c8f565b92915050565b5f805f60608486031215610cce57610ccd610765565b5b5f610cdb86828701610a20565b9350506020610cec86828701610a20565b925050604084013567ffffffffffffffff811115610d0d57610d0c610769565b5b610d198682870161087c565b9150509250925092565b7f4e487b71000000000000000000000000000000000000000000000000000000005f52602260045260245ffd5b5f6002820490506001821680610d6757607f821691505b602082108103610d7a57610d79610d23565b5b50919050565b5f819050815f5260205f209050919050565b5f6020601f8301049050919050565b5f82821b905092915050565b5f60088302610ddc7fffffffffffffffffffffffffffffffffffffffffffffffffffffffffffffffff82610da1565b610de68683610da1565b95508019841693508086168417925050509392505050565b5f819050919050565b5f610e21610e1c610e1784610a01565b610dfe565b610a01565b9050919050565b5f819050919050565b610e3a83610e07565b610e4e610e4682610e28565b848454610dad565b825550505050565b5f90565b610e62610e56565b610e6d818484610e31565b505050565b5b81811015610e9057610e855f82610e5a565b600181019050610e73565b5050565b601f821115610ed557610ea681610d80565b610eaf84610d92565b81016020851015610ebe578190505b610ed2610eca85610d92565b830182610e72565b50505b505050565b5f82821c905092915050565b5f610ef55f1984600802610eda565b1980831691505092915050565b5f610f0d8383610ee6565b9150826002028217905092915050565b610f2682610a9b565b67ffffffffffffffff811115610f3f57610f3e610785565b5b610f498254610d50565b610f54828285610e94565b5f60209050601f831160018114610f85575f8415610f73578287015190505b610f7d8582610f02565b865550610fe4565b601f198416610f9386610d80565b5f5b82811015610fba57848901518255600182019150602085019450602081019050610f95565b86831015610fd75784890151610fd3601f891682610ee6565b8355505b6001600288020188555050505b505050505050565b7f4e487b71000000000000000000000000000000000000000000000000000000005f52603260045260245ffd5b7f4e487b71000000000000000000000000000000000000000000000000000000005f52601160045260245ffd5b5f61105082610a01565b91507fffffffffffffffffffffffffffffffffffffffffffffffffffffffffffffffff820361108257611081611019565b5b600182019050919050565b5f6040820190506110a05f830185610c8f565b81810360208301526110b28184610c02565b90509392505050565b7f53757276657920646f6573206e6f742065786973742e000000000000000000005f82015250565b5f6110ef601683610bf2565b91506110fa826110bb565b602082019050919050565b5f6020820190508181035f83015261111c816110e3565b9050919050565b7f5175657374696f6e20646f6573206e6f742065786973742e00000000000000005f82015250565b5f611157601883610bf2565b915061116282611123565b602082019050919050565b5f6020820190508181035f8301526111848161114b565b9050919050565b5f60408201905061119e5f830185610c8f565b6111ab6020830184610c8f565b939250505056fea26469706673582212209f33aed6443f44a19d779e872de3b5a2b363dee0a828f80d8087a7da095aeb1f64736f6c63430008150033",
  "immutableReferences": {},
  "source": "// SPDX-License-Identifier: MIT\r\npragma solidity ^0.8.0;\r\n\r\ncontract SurveyContract {\r\n    struct Survey {\r\n        string title;\r\n        string[] questions;\r\n        mapping(uint => string[]) responses;\r\n    }\r\n\r\n    mapping(uint => Survey) public surveys;\r\n    uint public surveyCount;\r\n\r\n    // Event declaration for creating a survey\r\n    event SurveyCreated(uint surveyId, string title);\r\n\r\n    // Event declaration for submitting a response\r\n    event ResponseSubmitted(uint surveyId, uint questionId);\r\n\r\n    constructor() {\r\n        surveyCount = 0;\r\n    }\r\n\r\n    function createSurvey(string memory _title, string[] memory _questions) public {\r\n        Survey storage newSurvey = surveys[surveyCount];\r\n        newSurvey.title = _title;\r\n        for (uint i = 0; i < _questions.length; i++) {\r\n            newSurvey.questions.push(_questions[i]);\r\n        }\r\n        emit SurveyCreated(surveyCount, _title);\r\n        surveyCount++;\r\n    }\r\n\r\n    function submitResponse(uint _surveyId, uint _questionId, string memory _response) public {\r\n        require(_surveyId < surveyCount, \"Survey does not exist.\");\r\n        require(_questionId < surveys[_surveyId].questions.length, \"Question does not exist.\");\r\n        surveys[_surveyId].responses[_questionId].push(_response);\r\n        emit ResponseSubmitted(_surveyId, _questionId);\r\n    }\r\n\r\n    function getSurvey(uint _surveyId) public view returns (string memory title, string[] memory questions) {\r\n        require(_surveyId < surveyCount, \"Survey does not exist.\");\r\n        Survey storage survey = surveys[_surveyId];\r\n        return (survey.title, survey.questions);\r\n    }\r\n\r\n    // This function retrieves responses for a specific question in a survey.\r\n    // Note: In a real-world scenario, consider how to handle response visibility and anonymity.\r\n    function getResponses(uint _surveyId, uint _questionId) public view returns (string[] memory) {\r\n        require(_surveyId < surveyCount, \"Survey does not exist.\");\r\n        require(_questionId < surveys[_surveyId].questions.length, \"Question does not exist.\");\r\n        return surveys[_surveyId].responses[_questionId];\r\n    }\r\n}",
  "sourcePath": "C:\\github-repos\\fintech101\\12-DApps\\00-beginner\\04-decentralized-survey-platform\\contracts\\SurveyContract.sol",
  "compiler": {
    "name": "solc",
    "version": "0.8.21+commit.d9974bed.Emscripten.clang"
  },
  "schemaVersion": "3.4.16",
  "updatedAt": "2024-06-01T16:17:40.483Z",
  "devdoc": {
    "kind": "dev",
    "methods": {},
    "version": 1
  },
  "userdoc": {
    "kind": "user",
    "methods": {},
    "version": 1
  }
}