{
  "contractName": "WeatherStation",
  "abi": [
    {
      "inputs": [
        {
          "internalType": "uint256",
          "name": "",
          "type": "uint256"
        }
      ],
      "name": "dataEntries",
      "outputs": [
        {
          "internalType": "uint256",
          "name": "timestamp",
          "type": "uint256"
        },
        {
          "internalType": "string",
          "name": "temperature",
          "type": "string"
        },
        {
          "internalType": "string",
          "name": "humidity",
          "type": "string"
        }
      ],
      "stateMutability": "view",
      "type": "function"
    },
    {
      "inputs": [
        {
          "internalType": "string",
          "name": "temperature",
          "type": "string"
        },
        {
          "internalType": "string",
          "name": "humidity",
          "type": "string"
        }
      ],
      "name": "addWeatherData",
      "outputs": [],
      "stateMutability": "nonpayable",
      "type": "function"
    },
    {
      "inputs": [],
      "name": "getDataCount",
      "outputs": [
        {
          "internalType": "uint256",
          "name": "",
          "type": "uint256"
        }
      ],
      "stateMutability": "view",
      "type": "function"
    }
  ],
  "bytecode": "0x608060405234801561000f575f80fd5b5061087b8061001d5f395ff3fe608060405234801561000f575f80fd5b506004361061003f575f3560e01c8063325f465814610043578063404afd73146100755780637355a42414610091575b5f80fd5b61005d600480360381019061005891906102ba565b6100af565b60405161006c9392919061037e565b60405180910390f35b61008f600480360381019061008a91906104ed565b6101ef565b005b61009961026b565b6040516100a69190610563565b60405180910390f35b5f81815481106100bd575f80fd5b905f5260205f2090600302015f91509050805f0154908060010180546100e2906105a9565b80601f016020809104026020016040519081016040528092919081815260200182805461010e906105a9565b80156101595780601f1061013057610100808354040283529160200191610159565b820191905f5260205f20905b81548152906001019060200180831161013c57829003601f168201915b50505050509080600201805461016e906105a9565b80601f016020809104026020016040519081016040528092919081815260200182805461019a906105a9565b80156101e55780601f106101bc576101008083540402835291602001916101e5565b820191905f5260205f20905b8154815290600101906020018083116101c857829003601f168201915b5050505050905083565b5f604051806060016040528042815260200184815260200183815250908060018154018082558091505060019003905f5260205f2090600302015f909190919091505f820151815f0155602082015181600101908161024e9190610776565b5060408201518160020190816102649190610776565b5050505050565b5f8080549050905090565b5f604051905090565b5f80fd5b5f80fd5b5f819050919050565b61029981610287565b81146102a3575f80fd5b50565b5f813590506102b481610290565b92915050565b5f602082840312156102cf576102ce61027f565b5b5f6102dc848285016102a6565b91505092915050565b6102ee81610287565b82525050565b5f81519050919050565b5f82825260208201905092915050565b5f5b8381101561032b578082015181840152602081019050610310565b5f8484015250505050565b5f601f19601f8301169050919050565b5f610350826102f4565b61035a81856102fe565b935061036a81856020860161030e565b61037381610336565b840191505092915050565b5f6060820190506103915f8301866102e5565b81810360208301526103a38185610346565b905081810360408301526103b78184610346565b9050949350505050565b5f80fd5b5f80fd5b7f4e487b71000000000000000000000000000000000000000000000000000000005f52604160045260245ffd5b6103ff82610336565b810181811067ffffffffffffffff8211171561041e5761041d6103c9565b5b80604052505050565b5f610430610276565b905061043c82826103f6565b919050565b5f67ffffffffffffffff82111561045b5761045a6103c9565b5b61046482610336565b9050602081019050919050565b828183375f83830152505050565b5f61049161048c84610441565b610427565b9050828152602081018484840111156104ad576104ac6103c5565b5b6104b8848285610471565b509392505050565b5f82601f8301126104d4576104d36103c1565b5b81356104e484826020860161047f565b91505092915050565b5f80604083850312156105035761050261027f565b5b5f83013567ffffffffffffffff8111156105205761051f610283565b5b61052c858286016104c0565b925050602083013567ffffffffffffffff81111561054d5761054c610283565b5b610559858286016104c0565b9150509250929050565b5f6020820190506105765f8301846102e5565b92915050565b7f4e487b71000000000000000000000000000000000000000000000000000000005f52602260045260245ffd5b5f60028204905060018216806105c057607f821691505b6020821081036105d3576105d261057c565b5b50919050565b5f819050815f5260205f209050919050565b5f6020601f8301049050919050565b5f82821b905092915050565b5f600883026106357fffffffffffffffffffffffffffffffffffffffffffffffffffffffffffffffff826105fa565b61063f86836105fa565b95508019841693508086168417925050509392505050565b5f819050919050565b5f61067a61067561067084610287565b610657565b610287565b9050919050565b5f819050919050565b61069383610660565b6106a761069f82610681565b848454610606565b825550505050565b5f90565b6106bb6106af565b6106c681848461068a565b505050565b5b818110156106e9576106de5f826106b3565b6001810190506106cc565b5050565b601f82111561072e576106ff816105d9565b610708846105eb565b81016020851015610717578190505b61072b610723856105eb565b8301826106cb565b50505b505050565b5f82821c905092915050565b5f61074e5f1984600802610733565b1980831691505092915050565b5f610766838361073f565b9150826002028217905092915050565b61077f826102f4565b67ffffffffffffffff811115610798576107976103c9565b5b6107a282546105a9565b6107ad8282856106ed565b5f60209050601f8311600181146107de575f84156107cc578287015190505b6107d6858261075b565b86555061083d565b601f1984166107ec866105d9565b5f5b82811015610813578489015182556001820191506020850194506020810190506107ee565b86831015610830578489015161082c601f89168261073f565b8355505b6001600288020188555050505b50505050505056fea2646970667358221220710af07605dd5444a5f4fa53fdc6aefc64de59dcbbab99ba5b94dc134d7bb11264736f6c63430008150033",
  "immutableReferences": {},
  "source": "// contracts/WeatherStation.sol\r\n\r\npragma solidity ^0.8.0;\r\n\r\ncontract WeatherStation {\r\n    struct WeatherData {\r\n        uint256 timestamp;\r\n        string temperature;\r\n        string humidity;\r\n    }\r\n\r\n    WeatherData[] public dataEntries;\r\n\r\n    function addWeatherData(string memory temperature, string memory humidity) public {\r\n        dataEntries.push(WeatherData(block.timestamp, temperature, humidity));\r\n    }\r\n\r\n    function getDataCount() public view returns (uint256) {\r\n        return dataEntries.length;\r\n    }\r\n}",
  "sourcePath": "C:\\github-repos\\fintech101\\12-DApps\\00-beginner\\03-decentralized-weather-app\\contracts\\weatherstation.sol",
  "compiler": {
    "name": "solc",
    "version": "0.8.21+commit.d9974bed.Emscripten.clang"
  },
  "schemaVersion": "3.4.16",
  "updatedAt": "2024-05-31T16:23:04.273Z",
  "devdoc": {
    "kind": "dev",
    "methods": {},
    "version": 1
  },
  "userdoc": {
    "kind": "user",
    "methods": {},
    "version": 1
  }
}