{
  "contractName": "TodoList",
  "abi": [
    {
      "inputs": [
        {
          "internalType": "address",
          "name": "",
          "type": "address"
        },
        {
          "internalType": "uint256",
          "name": "",
          "type": "uint256"
        }
      ],
      "name": "tasks",
      "outputs": [
        {
          "internalType": "uint256",
          "name": "id",
          "type": "uint256"
        },
        {
          "internalType": "string",
          "name": "content",
          "type": "string"
        },
        {
          "internalType": "bool",
          "name": "completed",
          "type": "bool"
        }
      ],
      "stateMutability": "view",
      "type": "function"
    },
    {
      "inputs": [
        {
          "internalType": "string",
          "name": "_content",
          "type": "string"
        }
      ],
      "name": "addTask",
      "outputs": [],
      "stateMutability": "nonpayable",
      "type": "function"
    },
    {
      "inputs": [
        {
          "internalType": "uint256",
          "name": "_id",
          "type": "uint256"
        },
        {
          "internalType": "string",
          "name": "_newContent",
          "type": "string"
        }
      ],
      "name": "editTask",
      "outputs": [],
      "stateMutability": "nonpayable",
      "type": "function"
    },
    {
      "inputs": [
        {
          "internalType": "uint256",
          "name": "_id",
          "type": "uint256"
        }
      ],
      "name": "toggleCompleted",
      "outputs": [],
      "stateMutability": "nonpayable",
      "type": "function"
    }
  ],
  "bytecode": "0x608060405234801561000f575f80fd5b50610ae48061001d5f395ff3fe608060405234801561000f575f80fd5b506004361061004a575f3560e01c8063455f50241461004e578063672385621461006a5780637149d2e414610086578063cb7bd995146100b8575b5f80fd5b61006860048036038101906100639190610439565b6100d4565b005b610084600480360381019061007f91906105a0565b6101b5565b005b6100a0600480360381019061009b9190610641565b6102b5565b6040516100af93929190610722565b60405180910390f35b6100d260048036038101906100cd919061075e565b610386565b005b5f803373ffffffffffffffffffffffffffffffffffffffff1673ffffffffffffffffffffffffffffffffffffffff1681526020019081526020015f208181548110610122576101216107b8565b5b905f5260205f2090600302016002015f9054906101000a900460ff16155f803373ffffffffffffffffffffffffffffffffffffffff1673ffffffffffffffffffffffffffffffffffffffff1681526020019081526020015f20828154811061018d5761018c6107b8565b5b905f5260205f2090600302016002015f6101000a81548160ff02191690831515021790555050565b5f803373ffffffffffffffffffffffffffffffffffffffff1673ffffffffffffffffffffffffffffffffffffffff1681526020019081526020015f2060405180606001604052805f803373ffffffffffffffffffffffffffffffffffffffff1673ffffffffffffffffffffffffffffffffffffffff1681526020019081526020015f208054905081526020018381526020015f1515815250908060018154018082558091505060019003905f5260205f2090600302015f909190919091505f820151815f0155602082015181600101908161029091906109df565b506040820151816002015f6101000a81548160ff021916908315150217905550505050565b5f602052815f5260405f2081815481106102cd575f80fd5b905f5260205f2090600302015f9150915050805f0154908060010180546102f390610812565b80601f016020809104026020016040519081016040528092919081815260200182805461031f90610812565b801561036a5780601f106103415761010080835404028352916020019161036a565b820191905f5260205f20905b81548152906001019060200180831161034d57829003601f168201915b505050505090806002015f9054906101000a900460ff16905083565b805f803373ffffffffffffffffffffffffffffffffffffffff1673ffffffffffffffffffffffffffffffffffffffff1681526020019081526020015f2083815481106103d5576103d46107b8565b5b905f5260205f20906003020160010190816103f091906109df565b505050565b5f604051905090565b5f80fd5b5f80fd5b5f819050919050565b61041881610406565b8114610422575f80fd5b50565b5f813590506104338161040f565b92915050565b5f6020828403121561044e5761044d6103fe565b5b5f61045b84828501610425565b91505092915050565b5f80fd5b5f80fd5b5f601f19601f8301169050919050565b7f4e487b71000000000000000000000000000000000000000000000000000000005f52604160045260245ffd5b6104b28261046c565b810181811067ffffffffffffffff821117156104d1576104d061047c565b5b80604052505050565b5f6104e36103f5565b90506104ef82826104a9565b919050565b5f67ffffffffffffffff82111561050e5761050d61047c565b5b6105178261046c565b9050602081019050919050565b828183375f83830152505050565b5f61054461053f846104f4565b6104da565b9050828152602081018484840111156105605761055f610468565b5b61056b848285610524565b509392505050565b5f82601f83011261058757610586610464565b5b8135610597848260208601610532565b91505092915050565b5f602082840312156105b5576105b46103fe565b5b5f82013567ffffffffffffffff8111156105d2576105d1610402565b5b6105de84828501610573565b91505092915050565b5f73ffffffffffffffffffffffffffffffffffffffff82169050919050565b5f610610826105e7565b9050919050565b61062081610606565b811461062a575f80fd5b50565b5f8135905061063b81610617565b92915050565b5f8060408385031215610657576106566103fe565b5b5f6106648582860161062d565b925050602061067585828601610425565b9150509250929050565b61068881610406565b82525050565b5f81519050919050565b5f82825260208201905092915050565b5f5b838110156106c55780820151818401526020810190506106aa565b5f8484015250505050565b5f6106da8261068e565b6106e48185610698565b93506106f48185602086016106a8565b6106fd8161046c565b840191505092915050565b5f8115159050919050565b61071c81610708565b82525050565b5f6060820190506107355f83018661067f565b818103602083015261074781856106d0565b90506107566040830184610713565b949350505050565b5f8060408385031215610774576107736103fe565b5b5f61078185828601610425565b925050602083013567ffffffffffffffff8111156107a2576107a1610402565b5b6107ae85828601610573565b9150509250929050565b7f4e487b71000000000000000000000000000000000000000000000000000000005f52603260045260245ffd5b7f4e487b71000000000000000000000000000000000000000000000000000000005f52602260045260245ffd5b5f600282049050600182168061082957607f821691505b60208210810361083c5761083b6107e5565b5b50919050565b5f819050815f5260205f209050919050565b5f6020601f8301049050919050565b5f82821b905092915050565b5f6008830261089e7fffffffffffffffffffffffffffffffffffffffffffffffffffffffffffffffff82610863565b6108a88683610863565b95508019841693508086168417925050509392505050565b5f819050919050565b5f6108e36108de6108d984610406565b6108c0565b610406565b9050919050565b5f819050919050565b6108fc836108c9565b610910610908826108ea565b84845461086f565b825550505050565b5f90565b610924610918565b61092f8184846108f3565b505050565b5b81811015610952576109475f8261091c565b600181019050610935565b5050565b601f8211156109975761096881610842565b61097184610854565b81016020851015610980578190505b61099461098c85610854565b830182610934565b50505b505050565b5f82821c905092915050565b5f6109b75f198460080261099c565b1980831691505092915050565b5f6109cf83836109a8565b9150826002028217905092915050565b6109e88261068e565b67ffffffffffffffff811115610a0157610a0061047c565b5b610a0b8254610812565b610a16828285610956565b5f60209050601f831160018114610a47575f8415610a35578287015190505b610a3f85826109c4565b865550610aa6565b601f198416610a5586610842565b5f5b82811015610a7c57848901518255600182019150602085019450602081019050610a57565b86831015610a995784890151610a95601f8916826109a8565b8355505b6001600288020188555050505b50505050505056fea2646970667358221220491ddaccb81197c18c1f4e13fb466c3a3d3ce90dbedc7168848e0300d421382b64736f6c63430008150033",
  "immutableReferences": {},
  "source": " // SPDX-License-Identifier: MIT\r\n   pragma solidity ^0.8.0;\r\n\r\n   contract TodoList {\r\n       struct Task {\r\n           uint id;\r\n           string content;\r\n           bool completed;\r\n       }\r\n\r\n       mapping(address => Task[]) public tasks;\r\n\r\n       function addTask(string memory _content) public {\r\n           tasks[msg.sender].push(Task(tasks[msg.sender].length, _content, false));\r\n       }\r\n\r\n       function editTask(uint _id, string memory _newContent) public {\r\n           tasks[msg.sender][_id].content = _newContent;\r\n       }\r\n\r\n       function toggleCompleted(uint _id) public {\r\n           tasks[msg.sender][_id].completed = !tasks[msg.sender][_id].completed;\r\n       }\r\n   }",
  "sourcePath": "C:\\github-repos\\fintech101\\12-DApps\\00-beginner\\02-decentralized-to-do-list\\contracts\\TodoList.sol",
  "compiler": {
    "name": "solc",
    "version": "0.8.21+commit.d9974bed.Emscripten.clang"
  },
  "schemaVersion": "3.4.16",
  "updatedAt": "2024-05-27T18:44:34.849Z",
  "devdoc": {
    "kind": "dev",
    "methods": {},
    "version": 1
  },
  "userdoc": {
    "kind": "user",
    "methods": {},
    "version": 1
  }
}